:100000000C94C7010C94E4010C94E4010C94E401F9
:100010000C94E4010C94E4010C94E4010C94E401CC
:100020000C94E4010C94E4010C94E4010C94E401BC
:100030000C94E4010C94E4010C94E4010C94E401AC
:100040000C94E4010C94E4010C94E4010C94E4019C
:100050000C94E4010C94E4010C94E4010C94E4018C
:100060000C94E4010C94E4010C94E4010C94E4017C
:100070000C94E4010C94E4010C94E4010C94E4016C
:100080000C94E4010C94E4010C94E4010C94E4015C
:100090000C94E4010C94E4010C94E4010C94E4014C
:1000A0000C94E4010C94E4010C94E4016E616E0084
:1000B000696E6600000000000000005F000000079D
:1000C000000700147F147F14242A7F2A12231308A8
:1000D000646236495522500005030000001C22418D
:1000E000000041221C0014083E081408083E0808BD
:1000F0000050300000080808080800606000002078
:10010000100804023E5149453E00427F40004261D2
:100110005149462141454B311814127F102745455E
:1001200045393C4A49493001710905033649494975
:1001300036064949291E00363600000056360000B2
:10014000081422410014141414140041221408024B
:1001500001510906324979413E7E1111117E7F49D4
:100160004949363E414141227F4141221C7F494954
:1001700049417F090909013E4149497A7F08080838
:100180007F00417F41002040413F017F0814224110
:100190007F404040407F020C027F7F0408107F3E7A
:1001A0004141413E7F090909063E4151215E7F09D7
:1001B000192946464949493101017F01013F404023
:1001C000403F1F2040201F3F4038403F6314081429
:1001D0006307087008076151494543007F414100AA
:1001E00002040810200041417F0004020102044083
:1001F00040404040000102040020545454787F489D
:100200004444383844444420384444487F385454A3
:100210005418087E0901020C5252523E7F08040411
:100220007800447D40002040443D007F1028440079
:1002300000417F40007C041804787C08040478386E
:10024000444444387C14141408081414187C7C08A2
:100250000404084854545420043F4440203C404087
:10026000207C1C2040201C3C4030403C442810286E
:10027000440C5050503C4464544C440008364100F7
:1002800000007F00000041360800100808100878C0
:100290004641467800407A10F35A00A0724E180981
:1002A0000010A5D4E80000E87648170000E40B54DD
:1002B000020000CA9A3B000000E1F50500008096AC
:1002C0009800000040420F000000A08601000000DE
:1002D000102700000000E803000000006400000098
:1002E00000000A00000000000100000000002C7661
:1002F000D888DC674F0823DFC1DFAE59E1B1B7967C
:10030000E5E3E453C63AE651997696E8E6C28426D8
:10031000EB898C9B62ED407C6FFCEFBC9C9F40F2B4
:10032000BAA56FA5F490055A2AF75C936B6CF96730
:100330006DC11BFCE0E40D47FEF520E6B500D0EDF5
:10034000902E0300943577050080841E080000205D
:100350004E0A000000C80C333333330F986E1283FB
:100360001141EF8D2114893BE65516CFFEE6DB18CF
:10037000D1844B381BF77C1D901DA4BBE424203294
:1003800084725E228100C9F124ECA1E53D2711248D
:100390001FBECFEFDAE0DEBFCDBF11E0A0E0B1E0DD
:1003A000E4EFF3E302C005900D92AC37B107D9F743
:1003B00013E0ACE7B1E001C01D92A43AB107E1F748
:1003C0000E94120C0C94F8190C9400008091850185
:1003D0000895109287011092860108956417750799
:1003E0002CF0BA01481759070CF4BC01CB01089551
:1003F000AC019B01641775070CF49A01C9010895BB
:10040000AC019B01461757070CF49A01C9010895E6
:1004100088309105B9F0893091051CF4049731F4C6
:1004200017C08031910549F0809711F080E0089560
:1004300080E06031710551F410C080E060327105D8
:1004400029F40BC080E06430710539F081E0089533
:1004500080E06830710509F081E00895EF92FF9225
:100460000F931F93CF93DF93EC01E880F9800C8109
:100470001D810E0D1F1DE8E8F1E02081318184818E
:100480009581AC01281739070CF4A901DA011197FD
:100490006281738146815781A017B1079CF501964F
:1004A000821B930B97FF03C0909581959F4F8A0FF6
:1004B0009B1FE816F90634F5CA01641775070CF49A
:1004C000CB01DC0111972A813B818E819F81820FB4
:1004D000931FA817B907B4F4CA010196861B970B9E
:1004E00097FF03C0909581959F4F8A0F9B1F2817F8
:1004F000390744F481E0DF91CF911F910F91FF9074
:10050000EF900895389681E0E03AF80709F0B5CF0A
:1005100080E0F1CFFC012091A0013091A101408148
:10052000518184819581840F951F281739072CF5F7
:100530008091A4019091A501280F391F42175307FC
:10054000E4F42091A2013091A3016281738186813C
:100550009781860F971F281739077CF440E0809118
:10056000A6019091A701280F391F621773070CF09D
:1005700041E081E04827842F089580E090E00895CD
:1005800089B186958170089583B1881F8827881F57
:10059000089583B186958170089589B18170089519
:1005A0008FB1829586958695817008958FB18295D9
:1005B00086958170089589B1869580FF03C020E2F9
:1005C00030E026C01F9B03C020E130E021C083B192
:1005D000869580FF03C028E030E01AC0489B03C026
:1005E00024E030E015C08FB18295869586958370A2
:1005F00080FF03C020E430E00BC08FB18295869568
:10060000877080FD03C021E030E002C020E830E0C8
:10061000C90108958031910551F18131910544F46A
:100620008430910509F443C0089709F051C02DC0EA
:100630008034910539F08038910539F0809709F0C0
:1006400047C007C010927C01089581E080937C012F
:1006500008951092840180916001909161018097CA
:1006600019F481E08093840180E290E01BC0109235
:1006700084018091600190916101409719F481E0BB
:100680008093840180E190E00DC0109284018091FC
:10069000600190916101089719F481E080938401D1
:1006A00088E090E09093610180936001089510923A
:1006B00084018091600190916101049719F481E0B7
:1006C0008093840184E090E09093610180936001C5
:1006D000089580918401882339F080E593EC019797
:1006E000F1F710928401089584EC99E028EC30E051
:1006F000F9013197F1F70197D9F708958032910503
:1007000051F08031910539F08830910521F020E0D9
:1007100030E0049711F421E030E0822F08958091B9
:100720008101909182016CE671E04AE050E00E9404
:10073000BD1880915801909159016FE671E04AE02F
:1007400050E00E94BD1880916C01882319F480E369
:1007500080936C0180916D01882319F480E280936D
:100760006D0180916E01882319F488E280936E01F7
:1007700080916F01882319F480E380936F01809149
:100780007001882319F489E28093700180E060E0B1
:100790004CE651E00E94F81108950E94231081E177
:1007A00068E140E051E00E94F81181E0809385010A
:1007B0000E941D1280E29EE428EC30E0F90131979E
:1007C000F1F70197D9F708950E94231087E06EE0B2
:1007D0004BE051E00E94F81186E162E24AE151E00B
:1007E0000E94F8110E941D1280E29EE428EC30E085
:1007F000F9013197F1F70197D9F70895CF93DF9376
:10080000C0E0D0E00DC08091A0012091A2012C0F8A
:1008100040916801480F4150622F0E945E1021965E
:100820008091A6019091A701C817D90764F3DF91C1
:10083000CF9108958091880160918A0140918C0147
:1008400020918E010E945E10809190016091920132
:1008500040919401209196010E945E108091980130
:1008600060919A0140919C0120919E010E945E102E
:100870000895CF92DF92EF92FF920F931F93CF9341
:10088000DF93C8E8D1E0CC24DD246C817D81288110
:100890003981621B730B882777FD8095982F0E9402
:1008A000A3139B01AC010E9457147B018C016E8144
:1008B0007F812A813B81621B730B882777FD80959E
:1008C000982F0E94A3139B01AC010E9457149B0117
:1008D000AC01C801B7010E94A0120E94BE140E9480
:1008E0007013C60ED71E289681E0C03AD80769F665
:1008F000C601DF91CF911F910F91FF90EF90DF9094
:10090000CF900895CF92DF92EF92FF920F931F93B3
:10091000CF93DF93C8E8D1E0EE24FF2484E5C82E0E
:10092000D12CE0FC2AC00E94E11664E570E00E9430
:100930001115182F092F0E94E1166EE070E00E9439
:1009400011159C01265F3F4F188309831C830D837B
:10095000C70163E070E00E941115892B29F41B8206
:100960001A823F832E8331C080E390E09B838A8389
:10097000821B930B9F838E8328C00E94E11660E345
:1009800070E00E941115182F092F0E94E11660E2F5
:1009900070E00E9411159C01265F3F4F1A830B8364
:1009A0001E830F83C70163E070E00E941115892B3D
:1009B00029F4198218823D832C8307C0D982C8820A
:1009C000C601821B930B9D838C830894E11CF11C50
:1009D000289683E0E816F10409F0A3CF0E943904B9
:1009E00090937E0180937D01DF91CF911F910F91B4
:1009F000FF90EF90DF90CF900895EF92FF920F93CA
:100A00001F93DF93CF9300D000D00F92CDB7DEB706
:100A10007B01882389F10E94231000D000D000D0F0
:100A2000EDB7FEB731968E010F5F1F4FADB7BEB762
:100A300012961C930E93119783E291E09383828325
:100A4000F582E4820E940A198DB79EB706960FB60A
:100A5000F8949EBF0FBE8DBF8AE268E1A8010E9494
:100A6000F8110E941D1280E29EE428EC30E0F901AA
:100A70003197F1F70197D9F70F900F900F900F90E2
:100A80000F90CF91DF911F910F91FF90EF900895FC
:100A9000EF92FF920F931F93DF93CF9300D000D07C
:100AA0000F92CDB7DEB77B01882389F10E94231016
:100AB00000D000D000D0EDB7FEB731968E010F5FA9
:100AC0001F4FADB7BEB712961C930E93119783E2DA
:100AD00091E093838283F582E4820E940A198DB7A4
:100AE0009EB706960FB6F8949EBF0FBE8DBF8AE2E2
:100AF00068E1A8010E94F8110E941D1280E197E2AE
:100B000028EC30E0F9013197F1F70197D9F70F9010
:100B10000F900F900F900F90CF91DF911F910F9139
:100B2000FF90EF9008950F931F93162F072F8823A0
:100B300059F10E942310A12FB02FFD010190002038
:100B4000E9F73197CF018A1B9B0B62E070E00E94AE
:100B50001115709561957F4FCB01880F991F880FF4
:100B6000991F860F971F865D68E1412F502F0E94C5
:100B7000F8110E941D1280E29EE428EC30E0F90199
:100B80003197F1F70197D9F71F910F9108958F923F
:100B90009F92AF92BF92CF92DF92EF92FF920F930C
:100BA0001F93CF93DF9320E080915E0190915F01CE
:100BB000181619060CF021E0822F66E271E00E94FF
:100BC000930580E066E271E00E949305E091860162
:100BD000F09187010081118101501040C281D381C1
:100BE00021978090640190906501A0906601B0907B
:100BF000670141E0C42ED12C34E0E32EF12C800EAD
:100C0000911EAC0EBD1E32C080E066E271E00E9413
:100C1000930580E066E271E00E949305E091860111
:100C2000F0918701EE0DFF1D208131812150304070
:100C300062817381409166015091670180916401E6
:100C400090916501820F931F0817190724F5281545
:100C500039050CF5CB010197480F591FC417D5076B
:100C6000D4F48A159B05BCF481E008C080915E0134
:100C700090915F01C816D9063CF280E0DF91CF91D8
:100C80001F910F91FF90EF90DF90CF90BF90AF90AA
:100C90009F908F9008950894C11CD11C84E090E02F
:100CA000E80EF91EE3CF8F929F92AF92BF92CF9240
:100CB000DF92EF92FF920F931F93CF93DF936C011C
:100CC000C0915C01D0915D014E01880C991C880C8B
:100CD000991C21975E01AA0CBB1CAA0CBB1C219677
:100CE0008BC020E080915E0190915F01C817D90709
:100CF0000CF021E0822F66E271E00E94930581E012
:100D000066E271E00E9493050091860110918701CF
:100D1000080D191D219720E080915E0190915F01DF
:100D2000C817D9070CF021E0822F66E271E00E941B
:100D3000930581E066E271E00E949305E0918601EF
:100D4000F0918701EA0DFB1DD8014D915C91208146
:100D50003181C901421753070CF4CA017C01089480
:100D6000E108F108D80112960D911C911397628148
:100D70007381D601ED91FC91119714968D919C9100
:100D800015978E0F9F1FE816F90684F5C901019685
:100D9000841B950B97FF03C0909581959F4F8E0DF7
:100DA0009F1DE817F90714F5CB01061717070CF478
:100DB000C801AC0141505040F60122813381868147
:100DC0009781820F931F4817590784F4CB0101962E
:100DD000801B910B97FF03C0909581959F4F840FC7
:100DE000951F2817390714F481E009C08CEF9FEF95
:100DF000880E991EA80EB91ED7FD73CF80E0DF9133
:100E0000CF911F910F91FF90EF90DF90CF90BF9007
:100E1000AF909F908F900895EF92FF920F931F9342
:100E2000CF93DF9374E5E72EF12CC0E3D0E08091FF
:100E30006801909169018701081B190B0E94E11656
:100E4000B8010E9411159093A1018093A001809197
:100E50006A0190916B018E01081B190B0E94E1162B
:100E6000B8010E9411159093A3018093A20180EA1A
:100E700091E00E9453068823D1F6DF91CF911F9114
:100E80000F91FF90EF900895809168019091690112
:100E90009093A5018093A40180916A0190916B01C8
:100EA0009093A7018093A6010E940C070895AF922A
:100EB000BF92CF92DF92EF92FF920F931F93CF9347
:100EC000DF9380915E0190915F018C010150104091
:100ED000AEEFEA2EAFEFFA2EE80EF91EEE0CFF1C75
:100EE000EE0CFF1C5801AA0CBB1CAA0CBB1C8FC02B
:100EF00020E080915E0190915F01081719070CF0C6
:100F000021E0822F66E271E00E94930580E066E2B4
:100F100071E00E949305C0918601D0918701CA0DAE
:100F2000DB1D68010894C108D10820E080915E01B2
:100F300090915F01C816D9060CF021E0822F66E27D
:100F400071E00E94930580E066E271E00E949305E3
:100F5000E0918601F0918701EE0DFF1D2881398116
:100F6000808191812817390709F052C12A813B817C
:100F7000828193812817390709F04AC120E08091C6
:100F80005E0190915F01C816D9060CF021E0822F16
:100F900066E271E00E94930580E066E271E00E94E3
:100FA0009305C0918601D0918701CE0DDF1D20E011
:100FB00080915E0190915F01081719070CF021E004
:100FC000822F66E271E00E94930580E066E271E0A4
:100FD0000E949305E0918601F0918701EA0DFB1DC7
:100FE000208131818881998191838083398328830D
:100FF000228133818A819B81938382833B832A83ED
:101000008CEF9FEFE80EF91EA80EB91E8601101690
:1010100011060CF46DCF80916001909161018830D0
:10102000910509F481C08930910524F4049709F0F1
:101030002AC1B1C080319105D1F1809709F023C157
:1010400020E080915E0190915F01181619060CF066
:1010500021E0822F66E271E00E94930580E066E263
:1010600071E00E949305C0918601D091870120E034
:1010700080915E0190915F01181619060CF021E035
:10108000822F66E271E00E94930580E066E271E0E3
:101090000E949305E0918601F091870182819381FE
:1010A0002091660130916701821B930B36C020E0CE
:1010B00080915E0190915F01181619060CF021E0F5
:1010C000822F66E271E00E94930580E066E271E0A3
:1010D0000E949305C0918601D091870120E0809104
:1010E0005E0190915F01181619060CF021E0822F25
:1010F00066E271E00E94930580E066E271E00E9482
:101100009305E0918601F0918701809166019091AD
:10111000670122813381820F931F60E370E00E9498
:1011200011159B838A83AFC020E080915E0190916E
:101130005F01181619060CF021E0822F66E271E0BB
:101140000E94930580E066E271E00E949305C091E1
:101150008601D091870120E080915E0190915F012E
:10116000181619060CF021E0822F66E271E00E9449
:10117000930580E066E271E00E949305E0918601AC
:10118000F091870180819181209164013091650106
:10119000821B930B36C020E080915E0190915F012D
:1011A000181619060CF021E0822F66E271E00E9409
:1011B000930580E066E271E00E949305C09186018C
:1011C000D091870120E080915E0190915F01181617
:1011D00019060CF021E0822F66E271E00E9493056F
:1011E00080E066E271E00E949305E0918601F09153
:1011F0008701809164019091650120813181820F86
:10120000931F64E570E00E941115998388833BC0A9
:1012100020E080915E0190915F01C816D9060CF024
:1012200021E0822F66E271E00E94930580E066E291
:1012300071E00E949305C0918601D0918701CE0D87
:10124000DF1D20E080915E0190915F010817190772
:101250000CF021E0822F66E271E00E94930580E0AD
:1012600066E271E00E949305E0918601F0918701AA
:10127000EA0DFB1D88819981918380838A819B81FE
:1012800093838283BDCEDF91CF911F910F91FF9009
:10129000EF90DF90CF90BF90AF9008957F928F92A4
:1012A0009F92AF92BF92CF92DF92EF92FF920F93F5
:1012B0001F93CF93DF938091640190916501019713
:1012C00062E070E00E9411156B01809166019091BF
:1012D0006701019762E070E00E9411157B0188248C
:1012E0009924AA24BB2479C080E066E271E00E94C0
:1012F000930580E066E271E00E949305E09186012B
:10130000F0918701EA0DFB1DC081D18120E0809121
:101310005E0190915F01881699060CF021E0822F02
:1013200066E271E00E94930580E066E271E00E944F
:101330009305CE0164E570E00E9411159C01E091D7
:101340008601F0918701EA0DFB1D8281938160E3A4
:1013500070E00E941115AC01B701680F791FC90137
:101360008C199D09EA01CE19DF09A601420F531F0E
:101370004535510514F044E550E0042F9C0197FFDA
:1013800002C020E030E0122F9B016133710514F0A0
:1013900020E330E0722E802F622F412F0E945E10DA
:1013A000D7FF02C0C0E0D0E0812F672D412F2C2F46
:1013B0000E945E10812F6C2F402F2C2F0E945E10F8
:1013C000802F6C2F402F272D0E945E100894811CC7
:1013D000911C84E090E0A80EB91E80915E0190916E
:1013E0005F01881699060CF47FCFDF91CF911F9192
:1013F0000F91FF90EF90DF90CF90BF90AF909F90B4
:101400008F907F90089580917C01882311F00E9435
:101410001A040E948F030E94FE030E944E090E943C
:101420001D120895AF92BF92CF92DF92EF92FF927A
:101430000F931F93CF93DF9360915E0170915F01D3
:101440006F5F7F4F660F771F660F771F8091860152
:10145000909187010E94F1169C01909387018093DF
:10146000860180E0232B09F481E06AE371E00E94A9
:101470009305C0915E01D0915F012196D0935F01E9
:10148000C0935E0122976E01CC0CDD1CCC0CDD1CE0
:1014900021967E01EE0CFF1CEE0CFF1C44C05E0189
:1014A0000894A108B10880E0A216B3060CF081E010
:1014B00066E271E00E94930580E066E271E00E94BE
:1014C000930500918601109187010C0D1D1D20E0F0
:1014D00080915E0190915F01C817D9070CF021E05F
:1014E000822F66E271E00E94930580E066E271E07F
:1014F0000E949305E0918601F0918701EE0DFF1D9A
:10150000D8018D919C9111979183808312968D9132
:101510009C911397938382838CEF9FEFC80ED91E03
:10152000E80EF91EE50120915E0130915F01C230A5
:10153000D1050CF0B4CF80E0121613060CF081E058
:1015400066E271E00E94930580E066E271E00E942D
:101550009305C0918601D091870120E080915E01C2
:1015600090915F0102970CF421E0822F66E271E016
:101570000E94930580E066E271E00E949305E0918D
:101580008601F091870188819981958384838A817E
:101590009B819783868380917C012091810130918A
:1015A0008201882319F02E5F3F4F02C02F5F3F4F0B
:1015B0003093820120938101DF91CF911F910F9190
:1015C000FF90EF90DF90CF90BF90AF900895CF92B3
:1015D000DF92EF92FF920F931F93CF93DF9380914F
:1015E000860190918701009731F00E943816109281
:1015F00087011092860180915A0190915B0190932E
:101600005F0180935E0164E070E00E946F159C01B1
:10161000909387018093860180E0232B09F481E079
:101620006AE371E00E949305C0E0D0E000E010E0C2
:101630009AE2C92ED12C88E1E82EF12C3FC080E03F
:1016400066E271E00E94930580E066E271E00E942C
:101650009305E0918601F0918701E00FF11F8091E1
:101660006401909165019C01C29FC001C39F900DD0
:10167000D29F900D11249601281B390B31832083B2
:1016800020E080915E0190915F01C817D9070CF0AE
:1016900021E0822F66E271E00E94930580E066E21D
:1016A00071E00E949305E0918601F0918701E00FBF
:1016B000F11FF382E28221960C5F1F4F80915E0141
:1016C00090915F01C817D9070CF4B9CF109285012A
:1016D00082E090E09093610180936001DF91CF916F
:1016E0001F910F91FF90EF90DF90CF900895809120
:1016F0005801909159010197909359018093580195
:10170000892B19F40E94CD0308950E94E70A0895D9
:10171000CF93DF93EC01209160013091610182232E
:101720009323892B69F4C901BE010E940802882312
:1017300029F0D0936101C093600102C00E94770B31
:10174000DF91CF91089580917F01909180019093D6
:10175000820180938101809156019091570190936D
:101760005901809358010E94E70A0895DF93CF93AF
:10177000CDB7DEB728970FB6F894DEBF0FBECDBF4A
:1017800020E080915E0190915F01181619060CF01F
:1017900021E0822F66E271E00E94930580E066E21C
:1017A00071E00E949305E0918601F09187018081AC
:1017B000918101979A8389838281938101979C8388
:1017C0008B8380916401909165019E838D838091CC
:1017D00066019091670198878F830E94C7058823CF
:1017E00011F00E94770BCE0101960E948A02882395
:1017F00021F00E94120A0E940C0780917C0188232C
:1018000041F0CE0101960E942E02882311F00E9421
:10181000770B28960FB6F894DEBF0FBECDBFCF91E1
:10182000DF91089580E88093610081E080936100FA
:1018300082E090E00E94E6168FE30E9451125198D8
:10184000279821985098209885988698109287011B
:10185000109286010E9482040E9444070E94E403C1
:101860000E94A30B30C080916001909161010297AA
:10187000B1F40E94231006C00E94DB020E940A03FA
:101880000E94030A8091600190916101823091056C
:1018900099F30E94880B0E9469030E9423100E9402
:1018A000DB020E940A0380916001909161010E9415
:1018B000880B0E9457070E94B60B0E94030A0E94E1
:1018C00069030E94231080918501882349F6CBCFBC
:1018D0000F931F93162F072F882359F10E9423106F
:1018E000A12FB02FFD0101900020E9F73197CF0122
:1018F0008A1B9B0B62E070E00E9411157095619548
:101900007F4FCB01880F991F880F991F860F971F54
:10191000865D68E1412F502F0E94F8110E941D1230
:1019200080E197E228EC30E0F9013197F1F7019777
:10193000D9F71F910F910895A1E1B0E0E2EAFCE030
:101940000C9424153C017F876E876A01FC01178285
:101950001682838181FD03C06FEF7FEF6FC39E010D
:101960002F5F3F4F398B288BF3012381EE85FF8555
:1019700023FD859123FF8191FF87EE87882309F45A
:101980005AC3853251F4EE85FF8523FD859123FFEF
:101990008191FF87EE87853229F490E0B3010E94A0
:1019A000DE18E2CF982F10E0882499241032B0F48A
:1019B0009B3269F09C3228F4903251F0933271F4EA
:1019C0000BC09D3239F0903349F4116028C0126089
:1019D000146025C0186023C0106121C017FD2AC003
:1019E000892F80538A3078F416FF06C0FAE09F9E54
:1019F000902C1124980E13C03AE0839E802C112461
:101A0000880E10620CC09E3221F416FD14C31064BF
:101A100006C09C3611F4106802C0983659F4EE8561
:101A2000FF8523FD959123FF9191FF87EE879923F1
:101A300009F0BCCF892F8554833020F4812F806139
:101A4000905E07C0892F8556833008F09FC1812F93
:101A50008F7E86FD02C076E0972E6FE3F62EF82289
:101A6000953619F4F0E4FF2A07C0963619F420E8F9
:101A7000F22A02C091109A94F7FE0AC03BE339158E
:101A800018F45CE3B52E02C0B92CB39427E009C06A
:101A900047E0491520F4BB2447E0942EF7CF292DC9
:101AA000BB24C60104969D878C87F60160817181F5
:101AB00082819381AE014F5F5F4F0B2D0E94BF1754
:101AC0006C010981202E332400FF04C003FD02C0F5
:101AD0001DE209C0F1FE02C01BE205C0F2FC02C01B
:101AE00010E001C010E2C1018C709070892BB9F137
:101AF000112311F483E001C084E0881510F08824DC
:101B00000AC0881AF3FC07C080E290E0B3010E948B
:101B1000DE188A94C9F7112329F0812F90E0B301D0
:101B20000E94DE1823FE03C00CEA10E00EC000EB9A
:101B300010E00BC0E114F10409F0805290E0B30111
:101B40000E94DE180F5F1F4F05C0EF2CFF24F0E14D
:101B5000EF22FF24F8018491882361F714C1F7FE76
:101B600012C0BC0C24FE04C08A81813309F4BA94EB
:101B70001B141CF0BB24B3942DC0F8E0FB1550F5EA
:101B800038E0B32E27C0F6FC25C0892D90E08C15D7
:101B90009D054CF02CEFC2162FEFD20624F030E852
:101BA000F32A01C09A94992049F0E2E0F0E0EC0FAA
:101BB000FD1FE90DF11D80818033A1F3F7FE0AC0FE
:101BC000B92CB394892D90E0C816D90614F0992445
:101BD00001C09C18F7FC03C025E030E009C01C14CC
:101BE0001D041CF021E030E003C096012F5F3F4F41
:101BF000112311F02F5F3F4F992029F0892D90E09C
:101C00000196280F391F882D90E02817390714F006
:101C1000882401C0821A4F2C5524C201897090700B
:101C2000892B39F008C080E290E0B3010E94DE18F1
:101C30008A948820C1F7112329F0812F90E0B30105
:101C40000E94DE1843FE07C008C080E390E0B301A5
:101C50000E94DE188A948820C1F7F7FE46C08601EC
:101C6000D7FE02C000E010E076010894E11CF11CF0
:101C7000E01AF10A41E050E04C0F5D1FE40EF51E42
:101C800026014B185108892D90E0AA24BB24A81ADC
:101C9000B90A5FEF0F3F150729F48EE290E0B30118
:101CA0000E94DE18C016D10634F0401651061CF40E
:101CB000F701808101C080E3015010400894E11CCD
:101CC000F11C0A151B052CF090E0B3010E94DE18F0
:101CD000E0CF0C151D0539F49A81963318F495332D
:101CE00011F424FE81E390E04BC08A81813309F036
:101CF0000F7E90E0B3010E94DE189920A1F08EE2E1
:101D000090E0B3010E94DE1812E0E1E0F0E0EC0F99
:101D1000FD1FE10FF11D1F5F808190E0B3010E9464
:101D2000DE189A9491F744FC03C085E690E002C067
:101D300085E490E0B3010E94DE18D7FC05C0C11411
:101D4000D10441F404FF06C0D094C194D108D394C7
:101D50008DE201C08BE290E0B3010E94DE1880E3C7
:101D600005C08F5F26EF3FEFC20ED31E3AE0C316C9
:101D7000D104BCF790E0B3010E94DE18C601C09602
:101D8000B3010E94DE18CC84DD8452C1933631F059
:101D9000933799F0933509F059C023C0F60180813B
:101DA00089835E010894A11CB11C22E030E0C20EC0
:101DB000D31E21E0E22EF12C12C0F601A080B180EA
:101DC00016FD03C06FEF7FEF02C0692D70E022E0C7
:101DD00030E0C20ED31EC5010E94B2187C011F77ED
:101DE00013C0F601A080B18016FD03C06FEF7FEF36
:101DF00002C0692D70E022E030E0C20ED31EC501A2
:101E00000E9497187C01106813FF07C01BC080E276
:101E100090E0B3010E94DE188A94882D90E0E816C5
:101E2000F906A8F30FC0F50117FD859117FF819101
:101E30005F0190E0B3010E94DE1881108A9408943B
:101E4000E108F108E114F10471F7F2C0943611F0E1
:101E5000993689F517FF08C0F6012081318142814A
:101E6000538184E090E00AC0F601808191819C0159
:101E7000442737FD4095542F82E090E0C80ED91ECC
:101E80009FE6F92EF12257FF09C0509540953095F5
:101E900021953F4F4F4F5F4F90E8F92ACA01B90192
:101EA000AE014F5F5F4F2AE030E00E942E19E82E0E
:101EB000E889EE1A41C0953721F41F7E2AE030E010
:101EC0001CC0197F9F3661F0903720F4983509F0D7
:101ED000B2C00FC0903739F0983709F0ACC004C0D9
:101EE00028E030E00AC0106114FD146020E130E009
:101EF00004C014FD166020E132E017FF08C0F601AF
:101F0000608171818281938144E050E008C0F601D4
:101F100080819181BC0180E090E042E050E0C40EFD
:101F2000D51EAE014F5F5F4F0E942E19E82E5889D3
:101F3000E51A8FE7F82EF122F6FE0BC08EEFF8229D
:101F4000E91438F4F4FE07C0F2FC05C09FEEF92254
:101F500002C01E2D01C0192DF4FE0DC0FE01EE0DB4
:101F6000F11D8081803319F4E9EEFE2208C01F5F65
:101F7000F2FE05C003C08F2D867809F01F5F0F2D7C
:101F8000F3FC14C0F0FE0FC0181510F09E2C0BC00F
:101F90009E2C980C911A182D06C080E290E0B30197
:101FA0000E94DE181F5F1815C0F304C0181510F446
:101FB000811A01C0882404FF0FC080E390E0B301C0
:101FC0000E94DE1802FF1DC001FD03C088E790E0FB
:101FD0000EC088E590E00BC0802F867891F001FF5D
:101FE00002C08BE201C080E2F7FC8DE290E0B30119
:101FF0000E94DE1806C080E390E0B3010E94DE1864
:102000009A94E914C0F3EA94E1E0F0E0EC0FFD1FCC
:10201000EE0DF11D808190E0B3010E94DE18EE20EC
:1020200091F706C080E290E0B3010E94DE188A9426
:102030008820C1F799CCF30166817781CB01619645
:10204000E2E10C944015E8EAF1E0119283E0E03A15
:10205000F807D9F70895843580F5603370F5262F99
:10206000269526952695677090E0442399F0E4E53F
:102070002E9FF0011124E80FF91FE855FE4F81E073
:1020800090E002C0880F991F6A95E2F72081282B03
:1020900020830895E4E52E9FF0011124E80FF91F35
:1020A000E855FE4F81E090E002C0880F991F6A95C5
:1020B000E2F7809520812823208308952F923F9274
:1020C0004F925F926F927F928F929F92AF92BF9248
:1020D000CF92DF92EF92FF920F931F93DF93CF93F4
:1020E000CDB7DEB72D970FB6F894DEBF0FBECDBFCC
:1020F000D82EC62E142F022F8417F9F4A62EBB2437
:10210000E22EFF240EC08D2D6A2D41E00E942B107F
:10211000C01620F40894A11CB11C03C00894A108A7
:10212000B108C01628F4EA14FB040CF4FEC0EBCF8F
:10213000AE14BF040CF4F9C0E6CF282F30E06017CE
:10214000F9F4C9015C01E42EFF240EC08A2D6C2D28
:1021500041E00E942B10D11620F40894A11CB11C60
:1021600003C00894A108B108D11628F4EA14FB04AE
:102170000CF4DBC0EBCFAE14BF040CF4D6C0E6CF3A
:10218000842F90E09A838983C9015C0169817A81F7
:10219000681B790B882777FD8095982F0E94A313E1
:1021A0006F83788789879A87202E33244C2C552477
:1021B000B10164197509882777FD8095982F0E94D1
:1021C000A3133B014C012F81388549855A850E9414
:1021D00008136B837C838D839E8320E030E040E096
:1021E00050E00E94531487FF0DC0C401B301905802
:1021F0002F81388549855A850E9408136B837C831B
:102200008D839E830F2EF0E0CF2EF0E0DF2EF0E0E6
:10221000EF2EF0E0FF2EF02D70C0AB868A2D642DDE
:1022200041E00E942B10C701B6012B813C814D81FA
:102230005E810E94A01231C08B85642D41E00E9416
:102240002B101D861C86C401B30120E030E040E065
:1022500050E00E945314181624F4E1E0F0E0FD87EA
:10226000EC8700E010E0C401B30120E030E040E082
:1022700050E00E940413882314F401E010E08C85E0
:102280009D85801B910B480E591EC701B60120E0A9
:1022900030E040E85FE30E949F126B017C0120E088
:1022A00030E040E05FE30E94531488239CF0C401B7
:1022B000B30120E030E040E050E00E9453141816D3
:1022C0002CF4241435040CF0B7CF04C0421453048A
:1022D0000CF0B2CF6F81788589859A8520E030E057
:1022E00040E050E00E945314181624F40894A11CF6
:1022F000B11C03C00894A108B1086F817885898555
:102300009A8520E030E040E050E00E945314181617
:1023100034F4E981FA81EA15FB053CF07ECF89812E
:102320009A81A816B9060CF078CF2D960FB6F894BE
:10233000DEBF0FBECDBFCF91DF911F910F91FF90F8
:10234000EF90DF90CF90BF90AF909F908F907F9055
:102350006F905F904F903F902F9008959F92AF9213
:10236000BF92CF92DF92EF92FF920F931F93CF9382
:10237000DF93982EC62E85E0489FE0011124C05AB5
:10238000D04000E081E0A82EB12C18C0612F6C0D68
:10239000A501012E02C0440F551F0A94E2F74E21F9
:1023A0005F21012E02C0559547950A94E2F78D2DC5
:1023B0000E942B101F5F183049F70F5F053061F046
:1023C000FE01E00FF11DEC54FF4F10E0E491D02E20
:1023D000D90CEE2EFF24EFCFDF91CF911F910F91FB
:1023E000FF90EF90DF90CF90BF90AF909F900895B7
:1023F000EF92FF920F931F93CF93DF93F82E062F48
:10240000142F242F352FC901EC0195E0E92E08C0C7
:102410008E9DC00111248F0D602F0E94AE11219658
:102420009E01211B822F4881442391F7DF91CF9198
:102430001F910F91FF90EF900895CF93DF9380E06D
:1024400060E00E949212C8EAD1E081E069910E94A6
:10245000301283E0C03AD807C1F7DF91CF910895D9
:1024600095B18295880F807E9F7D982B95B95F9856
:1024700027E030E070E08F98CB01022E02C09595E6
:1024800087950A94E2F780FF02C02E9A01C02E9829
:102490008F9A215030408FEF2F3F380761F75F9AB6
:1024A00008951F93182F579A249A259A269A879A47
:1024B0002C985F9A2C9A80E061E20E94301210689A
:1024C00080E0612F0E94301280E064E00E943012B0
:1024D00080E063E10E94301280E06CE00E943012E4
:1024E00080E060E20E94301280E06CE00E943012D6
:1024F00080E060E40E94301280E060E80E943012C8
:102500001F910895CF93DF93C0E0D0E081E060E0B9
:102510000E943012219681E0C83FD807B9F7DF91B9
:10252000CF9108951F93182F606480E00E943012AD
:10253000106880E0612F0E9430121F91089550585A
:10254000BB27AA270ED075C166D130F06BD120F021
:1025500031F49F3F11F41EF45BC10EF4E095E7FBEC
:1025600051C1E92F77D180F3BA1762077307840747
:10257000950718F071F49EF58FC10EF4E0950B2EBF
:10258000BA2FA02D0B01B90190010C01CA01A001C5
:102590001124FF27591B99F0593F50F4503E68F120
:1025A0001A16F040A22F232F342F4427585FF3CF61
:1025B000469537952795A795F0405395C9F77EF432
:1025C0001F16BA0B620B730B840BBAF09150A1F07B
:1025D000FF0FBB1F661F771F881FC2F70EC0BA0F01
:1025E000621F731F841F48F4879577956795B79589
:1025F000F7959E3F08F0B3CF9395880F08F0992781
:10260000EE0F979587950895D9D008F481E0089545
:102610000CD00FC107D140F0FED030F021F45F3F65
:1026200019F0F0C0511139C1F3C014D198F39923B6
:10263000C9F35523B1F3951B550BBB27AA27621786
:102640007307840738F09F5F5F4F220F331F441FCB
:10265000AA1FA9F333D00E2E3AF0E0E830D0915003
:102660005040E695001CCAF729D0FE2F27D0660FF0
:10267000771F881FBB1F261737074807AB07B0E82F
:1026800009F0BB0B802DBF01FF2793585F4F2AF045
:102690009E3F510568F0B6C000C15F3FECF3983E25
:1026A000DCF3869577956795B795F7959F5FC9F7A2
:1026B000880F911D9695879597F90895E1E0660F2B
:1026C000771F881FBB1F621773078407BA0720F0A4
:1026D000621B730B840BBA0BEE1F88F7E09508950D
:1026E00004D06894B111D9C00895BCD088F09F5728
:1026F00090F0B92F9927B751A0F0D1F0660F771F4E
:10270000881F991F1AF0BA95C9F712C0B13081F02D
:10271000C3D0B1E00895C0C0672F782F8827B85F75
:1027200039F0B93FCCF3869577956795B395D9F78E
:102730003EF490958095709561957F4F8F4F9F4F98
:102740000895E89409C097FB3EF4909580957095A4
:1027500061957F4F8F4F9F4F9923A9F0F92F96E9ED
:10276000BB279395F695879577956795B795F11162
:10277000F8CFFAF4BB0F11F460FF1BC06F5F7F4FFF
:102780008F4F9F4F16C0882311F096E911C0772311
:1027900021F09EE8872F762F05C0662371F096E81A
:1027A000862F70E060E02AF09A95660F771F881FE9
:1027B000DAF7880F9695879597F90895990F00088D
:1027C000550FAA0BE0E8FEEF16161706E807F90703
:1027D000C0F012161306E407F50798F0621B730B9E
:1027E000840B950B39F40A2661F0232B242B252B1F
:1027F00021F408950A2609F4A140A6958FEF811DC2
:10280000811D089597F99F6780E870E060E0089562
:102810009FEF80EC089500240A94161617061806F8
:102820000906089500240A941216130614060506D4
:102830000895092E0394000C11F4882352F0BB0F65
:1028400040F4BF2B11F460FF04C06F5F7F4F8F4FC8
:102850009F4F089557FD9058440F551F59F05F3F03
:1028600071F04795880F97FB991F61F09F3F79F0B2
:1028700087950895121613061406551FF2CF469534
:10288000F1DF08C0161617061806991FF1CF8695B6
:102890007105610508940895E894BB27662777279A
:1028A000CB0197F908958ADF08F48FEF08950BD0D4
:1028B000C0CFB1DF28F0B6DF18F0952309F0A2CF22
:1028C000A7CF1124EACFC6DFA0F3959FD1F3950FD0
:1028D00050E0551F629FF001729FBB27F00DB11DA4
:1028E000639FAA27F00DB11DAA1F649F6627B00D34
:1028F000A11D661F829F2227B00DA11D621F739F1D
:10290000B00DA11D621F839FA00D611D221F749F2A
:102910003327A00D611D231F849F600D211D822F71
:10292000762F6A2F11249F5750408AF0E1F08823B8
:102930004AF0EE0FFF1FBB1F661F771F881F9150C5
:102940005040A9F79E3F510570F05CCFA6CF5F3F86
:10295000ECF3983EDCF3869577956795B795F795F8
:10296000E7959F5FC1F7FE2B880F911D9695879580
:1029700097F9089511F40EF44BCF3EC073DFD0F3F6
:102980009923D9F3CEF39F57550B87FF43D00024EB
:10299000A0E640EA900180585695979528F4805C0F
:1029A000660F771F881F20F026173707480730F477
:1029B000621B730B840B202931294A2BA69517948F
:1029C0000794202531254A2758F7660F771F881F5F
:1029D00020F026173707480730F4620B730B840B7F
:1029E000200D311D411DA09581F7B901842F91580B
:1029F000880F9695879508959F3F31F0915020F468
:102A0000879577956795B795880F911D96958795CA
:102A100097F9089591505040660F771F881FD2F79D
:102A2000089597FB092E07260AD077FD04D043D0DE
:102A300006D000201AF4709561957F4F0895F6F73F
:102A4000909581959F4F08952F923F924F925F925C
:102A50006F927F928F929F92AF92BF92CF92DF92AE
:102A6000EF92FF920F931F93CF93DF93CDB7DEB713
:102A7000CA1BDB0B0FB6F894DEBF0FBECDBF0994A7
:102A80002A88398848885F846E847D848C849B84FE
:102A9000AA84B984C884DF80EE80FD800C811B810C
:102AA000AA81B981CE0FD11D0FB6F894DEBF0FBE3B
:102AB000CDBFED010895AA1BBB1B51E107C0AA1FA2
:102AC000BB1FA617B70710F0A61BB70B881F991FCF
:102AD0005A95A9F780959095BC01CD0108950F9363
:102AE0001F93CF93DF93689F8001699F100D789F9C
:102AF000100D1124C8010E948B15EC01009729F0DC
:102B000060E070E0A8010E94AB18CE01DF91CF9188
:102B10001F910F910895CF93DF93BC0182309105EF
:102B200010F462E070E0A091A203B091A303ED0164
:102B3000E0E0F0E040E050E021C088819981861714
:102B4000970769F48A819B81309719F09383828378
:102B500004C09093A3038093A203FE0134C06817BE
:102B6000790738F44115510519F08417950708F4D1
:102B7000AC01FE018A819B819C01E9012097E9F665
:102B800041155105A9F1CA01861B970B049708F45A
:102B9000BA01E0E0F0E02AC08D919C911197841772
:102BA0009507F9F46417750781F412968D919C913D
:102BB0001397309719F09383828304C09093A303F3
:102BC0008093A203FD0132964FC0CA01861B970B6A
:102BD000FD01E80FF91F6193719302978D939C9308
:102BE00043C0FD01828193819C01D9011097A1F618
:102BF0008091A0039091A103892B41F480917301EE
:102C0000909174019093A1038093A003409175016A
:102C1000509176014115510541F44DB75EB7809151
:102C2000710190917201481B590B2091A0033091C2
:102C3000A10324173507B0F4CA01821B930B861732
:102C4000970780F0AB014E5F5F4F8417950750F0F8
:102C5000420F531F5093A1034093A003F9016193C6
:102C6000719302C0E0E0F0E0CF01DF91CF910895D1
:102C7000CF93DF93009709F450C0EC0122971B8299
:102C80001A82A091A203B091A303109709F140E02A
:102C900050E0AC17BD0708F1BB83AA83FE01219168
:102CA0003191E20FF31FAE17BF0779F48D919C911C
:102CB0001197280F391F2E5F3F4F398328831296B3
:102CC0008D919C9113979B838A834115510571F4D3
:102CD000D093A303C093A20320C012968D919C9120
:102CE0001397AD01009711F0DC01D3CFFA01D38324
:102CF000C28321913191E20FF31FCE17DF0769F4F0
:102D000088819981280F391F2E5F3F4FFA01318347
:102D100020838A819B8193838283DF91CF91089561
:102D2000A0E0B0E0E6E9F6E10C942C15EC01A880F7
:102D3000B980CA80DB80A114B104C104D10441F47C
:102D400084E2A82E89EDB82E8BE5C82E87E0D82E18
:102D5000C601B5012DE133EF41E050E00E94BB19FF
:102D600027EA31E440E050E00E949C197B018C018D
:102D7000C601B5012DE133EF41E050E00E94BB19DF
:102D8000CA01B9012CEE34EF4FEF5FEF0E949C199E
:102D90006E0D7F1D801F911F97FF04C06150704012
:102DA00080409048688379838A839B839B013F7727
:102DB000C901CDB7DEB7EAE00C9448150E94901621
:102DC000089587E791E00E9490160895A0E0B0E092
:102DD0008093770190937801A0937901B0937A0161
:102DE0000895A0E0B0E0E7EFF6E10C942A158C011D
:102DF000009729F4CB010E948B158C01BAC09EEF7D
:102E0000E92E9FEFF92EE00EF11E5801A60EB71E17
:102E1000AE14BF0408F4ABC08EEF882E8FEF982E4F
:102E20008A0C9B1CE7014881598146175707B8F067
:102E30004530510508F49DC0CA01049786179707CD
:102E400008F497C042505040461B570BF401518381
:102E5000408379836883C5010E9438168AC06B015C
:102E6000C41AD50AE091A203F091A303A0E0B0E058
:102E7000C0E0D0E042C0E815F905A1F5208131811C
:102E80002C153D0578F1C90102968C159D05A8F019
:102E90004E5F5F4F420F531FE701598348832281E2
:102EA0003381109729F013963C932E93129761C0AB
:102EB0003093A3032093A2035CC0225030402C190E
:102EC0003D0931832083109729F01396FC93EE93EC
:102ED000129704C0F093A303E093A203F701718358
:102EE000608347C080819181C817D90708F4EC013D
:102EF000DF01828193819C01F901309709F0BBCFFA
:102F0000400F511F8091A0039091A1038417950752
:102F1000E9F4C617D707D0F42091750130917601F6
:102F20002115310541F42DB73EB780917101909183
:102F30007201281B390BA216B306C8F4B092A10384
:102F4000A092A003E7017983688313C0CB010E949C
:102F50008B15EC01009759F0F70140815181B801C0
:102F60000E94A218C8010E9438168E0102C000E01B
:102F700010E0C801CDB7DEB7ECE00C944615283060
:102F800008F027E03327DA01990F311D87FD9160A2
:102F900000966105710539F432602E5F3D9330E390
:102FA0002A95E1F708959F3F30F08038710561055B
:102FB00009F03C5F3C5F3D93913008F08068911DC3
:102FC000DF93CF931F930F93FF92EF92192F987F68
:102FD0009695E92F96959695E90FFF27E251FD4FBB
:102FE00099273327EE24FF24A701E70105900894D1
:102FF000079428F4360FE71EF81E491F511D660F6F
:10300000771F881F991F0694A1F70590079428F44D
:10301000E70EF81E491F561FC11D770F881F991F05
:10302000661F0694A1F70590079428F4F80E491F2F
:10303000561FC71FD11D880F991F661F771F069443
:10304000A1F70590079420F4490F561FC71FD81FFA
:10305000990F661F771F881F0694A9F78491109512
:10306000177041F0D695C79557954795F794E79413
:103070001A95C1F7E4E9F2E068941590159135913D
:103080006591959105907FE27395E118F10A430BE4
:10309000560BC90BD009C0F7E10CF11E431F561F98
:1030A000C91FD01D7EF4703311F48A95E6CFE894E1
:1030B000015030F0080F0AF40027021708F4202FFF
:1030C0002395022F7A3328F079E37D932A95E9F747
:1030D00010C07D932A9589F6069497956795379544
:1030E00017951794E118F10A430B560BC90BD00939
:1030F00098F023957E9173957A3308F070E37C9372
:103100002013B8F77E9170617D9330F0839571E361
:103110007D9370E32A95E1F71124EF90FF900F91D2
:103120001F91CF91DF91992787FD90950895FC011C
:103130000590615070400110D8F7809590958E0FE2
:103140009F1F0895FB01DC0102C001900D924150C8
:103150005040D8F70895DC0101C06D9341505040B4
:10316000E0F70895FC016150704001900110D8F71C
:10317000809590958E0F9F1F0895FB019F01E89405
:103180004230C4F04532B4F44A3029F497FB1EF4BF
:10319000909581959F4F642F77270E945B15805DE6
:1031A0008A330CF0895D8193CB010097A1F716F467
:1031B0005DE251931082C9010C948C190F931F93F7
:1031C000CF93DF938C01EB018B8181FF1BC082FFCA
:1031D0000DC02E813F818C819D812817390764F4B1
:1031E000E881F9810193F983E88306C0E885F985D0
:1031F000802F0995892B31F48E819F8101969F83C1
:103200008E8302C00FEF1FEFC801DF91CF911F9196
:103210000F910895AEE0B0E0E0E1F9E10C943215D1
:103220000D891E8986E08C831A8309838FEF9FE7BF
:103230009E838D839E01275E3F4FCE0101966F894D
:10324000788DA9010E949C0C2F813885020F131FD5
:10325000F80110822E96E4E00C944E15FA01AA278C
:10326000283051F1203181F1E8946F936E7F6E5FC9
:103270007F4F8F4F9F4FAF4FB1E03ED0B4E03CD077
:10328000670F781F891F9A1FA11D680F791F8A1F5A
:10329000911DA11D6A0F711D811D911DA11D20D0C1
:1032A00009F468943F912AE0269F11243019305D7B
:1032B0003193DEF6CF010895462F4770405D41936C
:1032C000B3E00FD0C9F7F6CF462F4F70405D4A33B9
:1032D00018F0495D31FD4052419302D0A9F7EACF81
:1032E000B4E0A6959795879577956795BA95C9F7B0
:1032F00000976105710508959B01AC010A2E0694A3
:103300005795479537952795BA95C9F7620F731F5B
:10331000841F951FA01D0895DC01FC01672F71918A
:103320007723E1F7329704C07C916D9370836291AB
:10333000AE17BF07C8F30895629FD001739FF001D5
:10334000829FE00DF11D649FE00DF11D929FF00D35
:10335000839FF00D749FF00D659FF00D9927729F6C
:10336000B00DE11DF91F639FB00DE11DF91FBD01F7
:10337000CF011124089597FB092E05260ED057FD85
:1033800004D014D00AD0001C38F4509540953095E4
:1033900021953F4F4F4F5F4F0895F6F790958095D9
:1033A000709561957F4F8F4F9F4F0895A1E21A2E20
:1033B000AA1BBB1BFD010DC0AA1FBB1FEE1FFF1FD9
:1033C000A217B307E407F50720F0A21BB30BE40B29
:1033D000F50B661F771F881F991F1A9469F7609570
:1033E0007095809590959B01AC01BD01CF0108952A
:0433F000F894FFCF7F
:1033F40047616D65204F76657221004361726C6987
:103404006E20436F6E6E656C6C004E393135393900
:103414003332002564006572726F723A696E6465B6
:10342400785F736E616B652829006572726F723AFA
:103434006F7574206F66206D656D6F7279000A0078
:103444002A000A001800050005000200020003001B
:103454000400040003000300030003004646284C54
:0C346400292000A403000001000000006B
:00000001FF
